{
  "_format": "hh-sol-artifact-1",
  "contractName": "Sum",
  "sourceName": "contracts/Sum.sol",
  "abi": [
    {
      "anonymous": false,
      "inputs": [
        {
          "indexed": false,
          "internalType": "uint8",
          "name": "left",
          "type": "uint8"
        },
        {
          "indexed": false,
          "internalType": "uint8",
          "name": "right",
          "type": "uint8"
        },
        {
          "indexed": false,
          "internalType": "uint16",
          "name": "sum",
          "type": "uint16"
        }
      ],
      "name": "CalculateSum",
      "type": "event"
    },
    {
      "inputs": [
        {
          "internalType": "uint8",
          "name": "left",
          "type": "uint8"
        },
        {
          "internalType": "uint8",
          "name": "right",
          "type": "uint8"
        }
      ],
      "name": "calculateSum",
      "outputs": [],
      "stateMutability": "nonpayable",
      "type": "function"
    },
    {
      "inputs": [],
      "name": "getSum",
      "outputs": [
        {
          "internalType": "uint16",
          "name": "",
          "type": "uint16"
        }
      ],
      "stateMutability": "view",
      "type": "function"
    }
  ],
  "bytecode": "0x608060405234801561001057600080fd5b5061035e806100206000396000f3fe608060405234801561001057600080fd5b50600436106100365760003560e01c8063569c5f6d1461003b57806385e7916014610059575b600080fd5b610043610075565b60405161005091906101ff565b60405180910390f35b610073600480360381019061006e919061015e565b61008c565b005b60008060009054906101000a900461ffff16905090565b60058260ff16116100d2576040517f08c379a00000000000000000000000000000000000000000000000000000000081526004016100c9906101df565b60405180910390fd5b80826100de9190610262565b60ff166000806101000a81548161ffff021916908361ffff1602179055507f120158bd1af617adfba83f6ea51e1026312cccaf45b6055b1b0987a043739865828260008054906101000a900461ffff1660405161013d9392919061021a565b60405180910390a15050565b60008135905061015881610311565b92915050565b60008060408385031215610175576101746102e3565b5b600061018385828601610149565b925050602061019485828601610149565b9150509250929050565b60006101ab601983610251565b91506101b6826102e8565b602082019050919050565b6101ca81610299565b82525050565b6101d9816102a7565b82525050565b600060208201905081810360008301526101f88161019e565b9050919050565b600060208201905061021460008301846101c1565b92915050565b600060608201905061022f60008301866101d0565b61023c60208301856101d0565b61024960408301846101c1565b949350505050565b600082825260208201905092915050565b600061026d826102a7565b9150610278836102a7565b92508260ff0382111561028e5761028d6102b4565b5b828201905092915050565b600061ffff82169050919050565b600060ff82169050919050565b7f4e487b7100000000000000000000000000000000000000000000000000000000600052601160045260246000fd5b600080fd5b7f4c656674206d757374206772656174657220746861746e203500000000000000600082015250565b61031a816102a7565b811461032557600080fd5b5056fea26469706673582212200c127d492ee0a41c1132589807917ffa846d47e673a976a0b521228df993a2e964736f6c63430008070033",
  "linkReferences": {},
  "deployedLinkReferences": {}
}